:020000040800F2
:100000000050002011060008590600085906000893
:1000100059060008590600085906000800000000AB
:100020000000000000000000000000005906000869
:10003000590600080000000059060008590600088B
:100040005906000859060008590600085906000814
:100050005906000859060008590600085906000804
:1000600059060008590600085906000859060008F4
:1000700059060008590600085906000859060008E4
:1000800059060008590600085906000859060008D4
:1000900059060008590600085906000859060008C4
:1000A00059060008590600085906000859060008B4
:1000B00059060008590600085906000859060008A4
:1000C0005906000859060008590600085906000894
:1000D0005906000859060008590600085906000884
:1000E00059060008590600085906000800000000DB
:1000F0000000000000000000000000000000000000
:0C01000000000000000000005FF808F1A3
:10010C000348044B834202D0034B03B1184770479A
:10011C000400002004000020000000000548064BED
:10012C001B1AD90F01EBA301491002D0034B03B1E9
:10013C001847704704000020040000200000000055
:10014C0010B5064C237843B9FFF7DAFF044B13B113
:10015C000448AFF300800123237010BD040000207D
:10016C00000000005C06000808B5044B1BB10449F4
:10017C000448AFF30080BDE80840CFE70000000062
:10018C00080000205C06000870B50F4B0F4DAB4209
:10019C00A3EB050607D00024B61055F8043B013438
:1001AC009847A642F9D800F053FA094D094B5E1B4B
:1001BC00AB424FEAA60606D0002455F8043B0134A6
:1001CC009847A642F9D870BD74060008740600085A
:1001DC00740600087806000880B400AFFEE7000043
:1001EC0080B485B000AF7860084B9A6907497B688A
:1001FC0013438B61054B9A697B681340FB60FB686A
:10020C0000BF1437BD4680BC704700BF00100240D1
:10021C0090B488B000AFF860B9607A60FB681A4699
:10022C00BB681B0E13441C462268BB687B617B6950
:10023C0093FAA3F33B613B69B3FA83F3DBB29B0004
:10024C000F2101FA03F3DB431A40BB68FB61FB6926
:10025C0093FAA3F3BB61BB69B3FA83F3DBB29B00E4
:10026C00796801FA03F31343236000BF2037BD46BE
:10027C0090BC704780B485B000AF786039607B6803
:10028C00DB68FB603B681B0A9BB2BB60FA68BB680F
:10029C0013401A04FB68D943BB680B401A437B68B4
:1002AC001A6100BF1437BD4680BC704780B500AFE3
:1002BC0000F006F90820FFF793FF012240F20441F9
:1002CC000648FFF7A5FF40F204410448FFF7D2FFB0
:1002DC004FF4FA7000F064F9F5E700BF000C014030
:1002EC0080B483B000AF7860064B1B6823F0070224
:1002FC0004497B6813430B6000BF0C37BD4680BCC0
:10030C00704700BF0020024080B400AF034B1B6855
:10031C0003F007031846BD4680BC7047002002401E
:10032C0080B400AF044B1B68034A43F48033136062
:10033C0000BFBD4680BC70470010024080B400AFC7
:10034C00064B1B6803F40033B3F5003F0CBF0123CD
:10035C000023DBB21846BD4680BC7047001002403B
:10036C0080B483B000AF7860064B5B6823F0030267
:10037C0004497B6813434B6000BF0C37BD4680BCFF
:10038C00704700BF0010024080B400AF034B5B68A5
:10039C0003F00C031846BD4680BC704700100240A9
:1003AC0080B483B000AF7860064B5B6823F0F0023A
:1003BC0004497B6813434B6000BF0C37BD4680BCBF
:1003CC00704700BF0010024080B483B000AF78606B
:1003DC00064B5B6823F4E06204497B6813434B6073
:1003EC0000BF0C37BD4680BC704700BF00100240F8
:1003FC0080B483B000AF7860064B5B6823F4605226
:10040C0004497B6813434B6000BF0C37BD4680BC6E
:10041C00704700BF0010024080B400AF044B1B6853
:10042C00034A43F08073136000BFBD4680BC704725
:10043C000010024080B400AF064B1B6803F0007341
:10044C00B3F1007F0CBF01230023DBB21846BD467D
:10045C0080BC70470010024080B483B000AF78605D
:10046C003960084B5B6823F47C127B6803F44031E1
:10047C003B680B43034913434B6000BF0C37BD462D
:10048C0080BC70470010024080B483B000AF78602D
:10049C007B68042B06D1094B1B68084A43F0040304
:1004AC00136005E0054B1B68044A23F0040313603A
:1004BC0000BF0C37BD4680BC704700BF10E000E0A9
:1004CC0080B500AF0220FFF70BFFFFF71DFF0346BF
:1004DC00022B01D0FFF780FEFFF722FF00BFFFF7D2
:1004EC002DFF0346012BFAD14FF4E0114FF480306D
:1004FC00FFF7B2FFFFF790FF00BFFFF79BFF03462C
:10050C00012BFAD10020FFF74BFF4FF48060FFF76F
:10051C005BFF0020FFF76CFF0220FFF721FF00BFFD
:10052C00FFF732FF0346082BFAD1054800F02AF8F2
:10053C000420FFF7A9FF024800F056F800BF80BD69
:10054C0000A24A0480B400AF00BFBD4680BC704717
:10055C0080B483B000AF786039607A683B68B2FBD6
:10056C00F3F3074A013B5360054B00229A60044B9E
:10057C0005221A6000BF0C37BD4680BC704700BF17
:10058C0010E000E080B582B000AF78604FF47A7173
:10059C007868FFF7DDFF00BF0837BD4680BD00005F
:1005AC0080B485B000AF78600E4B1B68FB60FB68B5
:1005BC007B68B3F1FF3F0CD07B6801337B6008E0B4
:1005CC00084B1B6803F48033002B02D07B68013B83
:1005DC007B607B68002BF3D100BF00BF1437BD4696
:1005EC0080BC704710E000E080B483B000AF78604E
:1005FC00034A7B68136000BF0C37BD4680BC704754
:10060C0000000020FFF79EFF0B480C490C4A00230A
:10061C0002E0D458C4500433C4188C42F9D3094AAC
:10062C00094C002301E013600432A242FBD3FFF714
:10063C00ABFDFFF73BFE70470000002004000020DC
:10064C007C0600080400002020000020FEE70000CB
:10065C00F8B500BFF8BC08BC9E467047F8B500BFA3
:08066C00F8BC08BC9E46704773
:040674007501000804
:040678004D01000828
:04067C000024F40062
:0400000508000611D8
:00000001FF
