:020000040800F2
:1000000000500020790800085F0500086505000819
:100010006B05000871050008770500080000000066
:10002000000000000000000000000000A11A00080D
:100030007D05000800000000111D0008591D000882
:10004000C1080008C1080008C1080008C10800086C
:10005000C1080008C1080008C1080008C10800085C
:10006000C1080008C1080008C1080008C10800084C
:10007000C1080008C1080008C1080008C10800083C
:10008000C1080008C1080008C1080008C10800082C
:10009000C1080008C1080008C1080008C10800081C
:1000A000C1080008C1080008C1080008C10800080C
:1000B000C1080008C1080008C1080008C1080008FC
:1000C000C1080008C1080008C1080008C1080008EC
:1000D000C1080008C1080008C1080008C1080008DC
:1000E000C1080008C1080008C1080008000000009D
:1000F0000000000000000000000000000000000000
:0C01000000000000000000005FF808F1A3
:100110000348044B834202D0034B03B11847704796
:100120000800002008000020000000000548064BE1
:100130001B1AD90F01EBA301491002D0034B03B1E5
:100140001847704708000020080000200000000049
:1001500010B5064C237843B9FFF7DAFF044B13B10F
:100160000448AFF300800123237010BD0800002075
:1001700000000000E81E000808B5044B1BB104494C
:100180000448AFF30080BDE80840CFE7000000005E
:100190000C000020E81E000870B50F4B0F4DAB425D
:1001A000A3EB050607D00024B61055F8043B013434
:1001B0009847A642F9D801F097FE094D094B5E1BFE
:1001C000AB424FEAA60606D0002455F8043B0134A2
:1001D0009847A642F9D870BD301F0008301F0008AC
:1001E000301F0008341F000870B5860747D0541E22
:1001F000002A3ED00346CAB201E0013C39D303F8DD
:10020000012B9D07F9D1032C2CD9CDB205EB052587
:100210000F2C1A4605EB054534D9A4F1100C2CF02F
:100220000F0603F1100EB6444FEA1C1CC2E900553C
:10023000C2E9025510327245F8D10CF1010214F0F6
:100240000C0F03EB021204F00F0C13D0ACF10403FB
:1002500023F003030433134442F8045B9342FBD1BD
:100260000CF003042CB1C9B21C4403F8011BA342D7
:10027000FBD170BD64461346002CF4D1F9E7034668
:100280001446C0E7A446E1E780B400AFFEE780B4BF
:1002900085B000AF786039607B68DB68FB603B68E5
:1002A0001B0A9BB2BB60FA68BB6813401A04FB6868
:1002B000D943BB680B401A437B681A6100BF1437EF
:1002C000BD4680BC7047000080B500AF40F20441DD
:1002D0000348FFF7DCFF4FF4FA7000F077FCF5E716
:1002E000000C014080B582B002AF002301930423CB
:1002F0000093002378220849084800F01EFB0023E1
:10030000019304230093002378220549054800F057
:1003100014FB00BFBD4680BD001F00082903000874
:10032000101F00083D03000880B582B000AF786060
:10033000FFF7CAFF00BF0837BD4680BD80B582B059
:1003400000AF7860FFF7A0FF00BF0837BD4680BD53
:1003500080B483B000AF7860396000BF0C37BD4611
:1003600080BC704780B485B000AF78607B6803F0D4
:100370000703FB600C4BDB68BB60BA684FF6FF03FA
:100380001340BB60FB681A02BB68134343F0BF63B2
:1003900043F40033BB60044ABB68D36000BF14372A
:1003A000BD4680BC704700BF00ED00E080B400AFE8
:1003B000044BDB681B0A03F007031846BD4680BCEC
:1003C000704700BF00ED00E080B483B000AF03468B
:1003D0003960FB7197F90730002B0ADB3B68DAB212
:1003E0000C4997F907301201D2B20B4483F800236D
:1003F0000AE03B68DAB20849FB7903F00F03043BDB
:100400001201D2B20B441A7600BF0C37BD4680BC35
:10041000704700BF00E100E000ED00E080B489B06B
:1004200000AFF860B9607A60FB6803F00703FB6116
:10043000FB69C3F10703042B28BF0423BB61FB69DD
:100440000433062B02D9FB69033B00E000237B61E8
:100450004FF0FF32BB6902FA03F3DA43BB681A407C
:100460007B699A404FF0FF317B6901FA03F3D9436E
:100470007B680B40134318462437BD4680BC704749
:1004800080B485B000AF7860084B9A6907497B68F3
:1004900013438B61054B9A697B681340FB60FB68D3
:1004A00000BF1437BD4680BC704700BF001002403B
:1004B00090B488B000AFF860B9607A60FB681A4603
:1004C000BB681B0E13441C462268BB687B617B69BA
:1004D00093FAA3F33B613B69B3FA83F3DBB29B006E
:1004E0000F2101FA03F3DB431A40BB68FB61FB6990
:1004F00093FAA3F3BB61BB69B3FA83F3DBB29B004E
:10050000796801FA03F31343236000BF2037BD4627
:1005100090BC704780B500AF00F030F90320FFF7C2
:1005200021FFFFF743FF034600220F211846FFF784
:1005300075FF034619464FF0FF30FFF745FF0820CF
:10054000FFF79EFF012240F204410248FFF7B0FF8F
:1005500000BF80BD000C014080B400AFFEE780B456
:1005600000AFFEE780B400AFFEE780B400AFFEE767
:1005700080B400AFFEE780B400AFFEE780B400AF08
:1005800000BFBD4680BC704780B500AFFFF7C2FF1B
:10059000FFF7A8FE00F098FBFEE7000080B483B0F0
:1005A00000AF7860064B1B6823F0070204497B68A4
:1005B00013430B6000BF0C37BD4680BC704700BFC3
:1005C0000020024080B400AF034B1B6803F0070318
:1005D0001846BD4680BC70470020024080B400AF82
:1005E000044B1B68034A43F48033136000BFBD46CD
:1005F00080BC70470010024080B400AF064B1B68FF
:1006000003F40033B3F5003F0CBF01230023DBB23A
:100610001846BD4680BC70470010024080B483B0CD
:1006200000AF7860064B5B6823F0030204497B68E7
:1006300013434B6000BF0C37BD4680BC704700BF02
:100640000010024080B400AF034B5B6803F00C0362
:100650001846BD4680BC70470010024080B483B08D
:1006600000AF7860064B5B6823F0F00204497B68BA
:1006700013434B6000BF0C37BD4680BC704700BFC2
:100680000010024080B483B000AF7860064B5B6816
:1006900023F4E06204497B6813434B6000BF0C37CE
:1006A000BD4680BC704700BF0010024080B483B0DC
:1006B00000AF7860064B5B6823F4605204497B68A6
:1006C00013434B6000BF0C37BD4680BC704700BF72
:1006D0000010024080B400AF044B1B68034A43F093
:1006E0008073136000BFBD4680BC7047001002409D
:1006F00080B400AF064B1B6803F00073B3F1007FBA
:100700000CBF01230023DBB21846BD4680BC7047F6
:100710000010024080B483B000AF78603960084BAD
:100720005B6823F47C127B6803F440313B680B4325
:10073000034913434B6000BF0C37BD4680BC704774
:100740000010024080B483B000AF78607B68042B57
:1007500006D1094B1B68084A43F00403136005E007
:10076000054B1B68044A23F00403136000BF0C37D9
:10077000BD4680BC704700BF10E000E080B500AF10
:100780000220FFF70BFFFFF71DFF0346022B01D0EE
:10079000FFF7E2FEFFF722FF00BFFFF72DFF034642
:1007A000012BFAD14FF4E0114FF48030FFF7B2FF84
:1007B000FFF790FF00BFFFF79BFF0346012BFAD125
:1007C0000020FFF74BFF4FF48060FFF75BFF002036
:1007D000FFF76CFF0220FFF721FF00BFFFF732FF9A
:1007E0000346082BFAD1054800F02AF80420FFF749
:1007F000A9FF024800F032F800BF80BD00A24A0401
:1008000080B400AF00BFBD4680BC704780B483B0E9
:1008100000AF786039607A683B68B2FBF3F3074A4F
:10082000013B5360054B00229A60044B05221A607D
:1008300000BF0C37BD4680BC704700BF10E000E031
:1008400080B582B000AF78604FF47A717868FFF7B6
:10085000DDFF00BF0837BD4680BD000080B483B017
:1008600000AF7860034A7B68136000BF0C37BD4659
:1008700080BC704700000020FFF7C2FF0B480C4906
:100880000C4A002302E0D458C4500433C4188C42EC
:10089000F9D3094A094C002301E013600432A24253
:1008A000FBD3FFF779FCFFF76FFE704700000020D5
:1008B00008000020381F0008080000204C0D002010
:1008C000FEE780B58AB004AFF860B9607A603B603B
:1008D0007B689B00184600F017FE38613B69002BCF
:1008E00013D05C2000F010FE78617B69002B08D0EB
:1008F0005C2200217869FFF777FC7B693A691A630B
:1009000005E0386900F02CFF01E000237B617B6982
:10091000002B0DD0002303937B6902937B6A019324
:100920003B6A00933B687A68B968F86800F028F879
:100930007B6918461837BD4680BD80B588B002AFC8
:10094000F860B9607A603B607B6A01933B6A009310
:100950003B687A68B968F868FFF7B3FF38613B69AC
:10096000002B05D0386900F099F801237B6102E083
:100970004FF0FF337B617B6918461837BD4680BD59
:1009800080B588B000AFF860B9607A603B603B6BBF
:10099000186B7B689B001A46A521FFF725FC3B6B73
:1009A0001A6B7B6803F18043013B9B001344BB61DE
:1009B000BB6923F00703BB61BB6903F00703002B8E
:1009C0000AD04FF0500383F31188BFF36F8FBFF34A
:1009D0004F8F7B6100BFFEE7BB68002B1ED000235A
:1009E000FB6112E0BA68FB69134419783A6BFB6942
:1009F000134434330A461A70BA68FB6913441B78EF
:100A0000002B06D0FB690133FB61FB690F2BE9D991
:100A100000E000BF3B6B002283F84320BB6A042B3D
:100A20000AD94FF0500383F31188BFF36F8FBFF3E0
:100A30004F8F3B6100BFFEE7BB6A042B01D9042343
:100A4000BB623B6BBA6ADA623B6BBA6ADA643B6BD5
:100A50000433184601F0DBF93B6B1833184601F0FC
:100A6000D6F93B6B3A6B1A61BB6AC3F105023B6B6B
:100A70009A613B6B3A6B5A623A68F968B86900F060
:100A8000B5FF02463B6B1A60FB6A002B02D0FB6A83
:100A90003A6B1A6000BF2037BD4680BD80B584B078
:100AA00000AF786001F0DCF8414B1B680133404A2D
:100AB0001360404B1B68002B09D13E4A7B681360D2
:100AC0003B4B1B68012B10D100F004FC0DE03A4BAE
:100AD0001B68002B09D1374B1B68DA6A7B68DB6A1D
:100AE0009A4202D8334A7B681360344B1B68013347
:100AF000324A1360314B1A687B685A647B68DB6A40
:100B000001229A402E4B1B6813432D4A13607B68C9
:100B1000DA6A2C4913469B0013449B000B440433B0
:100B20001B68FB607B68FA689A60FB689A687B6860
:100B3000DA60FB689B687A6804325A607B681A1D29
:100B4000FB689A607B68DA6A13469B0013449B003B
:100B50001C4A1A447B685A617B68DA6A1949134651
:100B60009B0013449B000B441B687A68D26A591C93
:100B7000144813469B0013449B000344196001F082
:100B80009FF80D4B1B68002B0ED00A4B1B68DA6ACE
:100B90007B68DB6A9A4207D20B4B4FF080521A6097
:100BA000BFF34F8FBFF36F8F00BF1037BD4680BDBF
:100BB000FC00002024000020080100201801002073
:100BC000040100202800002004ED00E080B584B07E
:100BD00000AF78600023FB607B68002B17D000F02B
:100BE000B1F8124B1B68012B0AD04FF0500383F36E
:100BF0001188BFF36F8FBFF34F8FBB6000BFFEE75D
:100C00000021786800F0FEFB00F0AAF8F860FB68AD
:100C1000002B07D1064B4FF080521A60BFF34F8F65
:100C2000BFF36F8F00BF1037BD4680BD2401002089
:100C300004ED00E080B58AB002AF0123FB61002320
:100C40003B6100237B6111E01C4A7B6913441978E6
:100C50003A467B6913440A461A703A467B69134444
:100C60001B78002B06D07B6901337B617B690F2BDE
:100C7000EADD00E000BF0023BB6115E0104B3B61E3
:100C8000BB699B000F4A134439460193002300932C
:100C9000002378223869FFF750FEF861FB69002BCA
:100CA00006D0BB690133BB61BB69002BE6DD00E008
:100CB00000BFFB6918462037BD4680BD241F0008D1
:100CC000A51200082001002080B584B000AFFFF716
:100CD000B1FFF860FB68012B16D14FF0500383F38E
:100CE0001188BFF36F8FBFF34F8FBB6000BF114BF5
:100CF0004FF0FF321A60104B01221A600F4B002296
:100D00001A6000F0F3FE0EE0FB68B3F1FF3F0AD17A
:100D10004FF0500383F31188BFF36F8FBFF34F8FF2
:100D20007B6000BFFEE7064B1B6800BF1037BD4667
:100D300080BD00BF1C010020080100200001002030
:100D40002C1F000880B400AF044B1B680133034A1A
:100D5000136000BFBD4680BC704700BF2401002067
:100D600080B588B000AF0023FB610023BB6100F0B9
:100D700077FF00233B61754B1B68002B0AD14FF0B6
:100D8000500383F31188BFF36F8FBFF34F8F3B6026
:100D900000BFFEE76D4B1B68013B6C4A13606B4B59
:100DA0001B68002B40F0CA80694B1B68002B00F0C9
:100DB000C5808EE0674BDB68DB68FB61FB699B6A83
:100DC000FB60FB69DB69FA69126A9A60FB691B6A5E
:100DD000FA69D2695A60FB685A68FB6918339A420B
:100DE00003D1FB691A6AFB685A60FB6900229A62A8
:100DF000FB681B685A1EFB681A60FB695B69BB6075
:100E0000FB699B68FA69D2689A60FB69DB68FA69DA
:100E100092685A60BB685A68FB6904339A4203D1EE
:100E2000FB69DA68BB685A60FB6900225A61BB68DB
:100E30001B685A1EBB681A60FB69DB6A01229A4074
:100E4000454B1B681343444A1360FB69DA6A434904
:100E500013469B0013449B000B4404331B687B60C8
:100E6000FB697A689A607B689A68FB69DA607B68DC
:100E70009B68FA6904325A60FB691A1D7B689A60A4
:100E8000FB69DA6A13469B0013449B00334A1A44F9
:100E9000FB695A61FB69DA6A304913469B001344C7
:100EA0009B000B441B68FA69D26A591C2B481346F5
:100EB0009B0013449B0003441960FB69DA6A284BCA
:100EC0001B68DB6A9A4204D9264A3B69012142F831
:100ED0002310204B1B68002B7FF46CAFFB69002BA9
:100EE00001D000F075FA204B1B687B617B69002BF9
:100EF00012D000F03DF80346002B04D0194A3B699C
:100F0000012142F823107B69013B7B617B69002B47
:100F1000EFD1154B00221A60124A3B6952F8233078
:100F2000002B0BD00123BB610D4B1B680F4B4FF007
:100F300080521A60BFF34F8FBFF36F8F00F0C0FE77
:100F4000BB6918462037BD4680BD00BF2401002084
:100F5000FC000020BC00002004010020280000202C
:100F600024000020100100200C01002004ED00E00E
:100F700080B58AB000AF00237B627E4B1B68002BDC
:100F800040F0EE807C4B1B6801333B627A4A3B6A3F
:100F900013603B6A002B20D1784B1B681B68002B29
:100FA0000AD04FF0500383F31188BFF36F8FBFF364
:100FB0004F8F7B6000BFFEE7704B1B68FB61704B7F
:100FC0001B686E4A13606E4AFB6913606D4B1B68A9
:100FD00001336C4A136000F0FBF96B4B1B683A6AF3
:100FE0009A42C0F0A880654B1B681B68002B04D197
:100FF000654B4FF0FF321A609DE0604B1B68DB6869
:10100000DB68BB61BB695B687B613A6A7B699A425A
:1010100003D25D4A7B6913608DE0BB695B693B610C
:10102000BB699B68BA69D2689A60BB69DB68BA69B8
:1010300092685A603B695A68BB6904339A4203D18B
:10104000BB69DA683B695A60BB6900225A613B6937
:101050001B685A1E3B691A60BB699B6A002B1ED035
:10106000BB699B6AFB60BB69DB69BA69126A9A60FB
:10107000BB691B6ABA69D2695A60FB685A68BB6966
:1010800018339A4203D1BB691A6AFB685A60BB697C
:1010900000229A62FB681B685A1EFB681A60BB69D3
:1010A000DB6A01229A40394B1B681343374A1360AD
:1010B000BB69DA6A364913469B0013449B000B4414
:1010C00004331B68BB60BB69BA689A60BB689A68E6
:1010D000BB69DA60BB689B68BA6904325A60BB6955
:1010E0001A1DBB689A60BB69DA6A13469B001344F9
:1010F0009B00274A1A44BB695A61BB69DA6A2449D2
:1011000013469B0013449B000B441B68BA69D26AC8
:10111000591C1F4813469B0013449B00034419604D
:10112000BB69DA6A1B4B1B68DB6A9A427FF65BAFCE
:1011300001237B6257E7174B1B68DA6A1449134691
:101140009B0013449B000B441B68012B01D9012316
:101150007B62114B1B68002B07D001237B6204E0EC
:101160000E4B1B6801330D4A13607B6A1846283703
:10117000BD4680BD2401002000010020B4000020F5
:10118000B8000020140100201C01002004010020F0
:101190002800002024000020100100200C01002065
:1011A00080B588B000AF3A4B1B68002B03D0394B99
:1011B00001221A6068E0374B00221A60364B1B6828
:1011C0001B6BFB614FF0A533BB61FB691B68BA6900
:1011D0009A4211D1FB6904331B68BA699A420BD158
:1011E000FB6908331B68BA699A4205D1FB690C3365
:1011F0001B68BA699A4209D0274B1B6834337B615C
:10120000254B1B6879691846FFF7A2F8234B1B682A
:10121000BB60BB68B3FA83F3FB71FB79C3F11F03B7
:101220003B611F493A6913469B0013449B000B44E2
:101230001B68002B0AD14FF0500383F31188BFF3D2
:101240006F8FBFF34F8F3B6000BFFEE73A691346D5
:101250009B0013449B00124A1344FB60FB685B68CD
:101260005A68FB685A60FB685A68FB6808339A4200
:1012700003D1FB68DA68FB685A60FB685B68DB686F
:10128000054A1360044B1B6800BF2037BD4680BD74
:10129000240100201001002024000020040100206F
:1012A0002800002080B582B000AF786000F052F8CE
:1012B000064B1B68012BF9D9054B4FF080521A6081
:1012C000BFF34F8FBFF36F8FF0E700BF2800002000
:1012D00004ED00E080B582B000AF00237B600CE03D
:1012E0007A6813469B0013449B00124A1344184625
:1012F00000F06EFD7B6801337B607B68042BEFD9C7
:101300000D4800F065FD0D4800F062FD0C4800F04E
:101310005FFD0C4800F05CFD0B4800F059FD0B4BE5
:10132000054A1A600A4B054A1A6000BF0837BD46D5
:1013300080BD00BF280000208C000020A0000020FD
:10134000BC000020D0000020E8000020B4000020F5
:10135000B800002080B582B000AF19E000F080FC3A
:10136000104BDB68DB687B607B680433184600F059
:1013700092FD0D4B1B68013B0B4A13600B4B1B6826
:10138000013B0A4A136000F09BFC786800F010F8FB
:10139000064B1B68002BE1D100BF00BF0837BD46DC
:1013A00080BD00BFD0000020FC000020E400002031
:1013B00080B582B000AF78607B681B6B184600F088
:1013C000CFF9786800F0CCF900BF0837BD4680BD82
:1013D00080B400AF094B1B681B68002B04D1084B7D
:1013E0004FF0FF321A6005E0044B1B68DB681B6896
:1013F000034A136000BFBD4680BC7047B4000020A4
:101400001C01002080B588B000AF78603960374B90
:101410001B68FB61364B1B68BB61364B1B687B61ED
:10142000354B1B680433184600F035FD0346002B8E
:101430000BD1314B1B68DB6A012202FA03F3DA435A
:101440002E4B1B6813402D4A13607B68B3F1FF3F9E
:1014500024D13B68002B21D0294B5B683B61264B94
:101460001B683A699A60244B1B683A699268DA6093
:10147000214B1A683B699B6804325A601E4B1B68FB
:101480001A1D3B699A601C4B1B681D4A5A611C4B14
:101490001B6801331A4A136000BF22E0FA697B68B7
:1014A0001344FB60144B1B68FA685A60FA68FB69C6
:1014B0009A4207D2104B1B6804331946786900F032
:1014C000B2FC0EE00C4B1B6804331946B86900F0FF
:1014D000AAFC0C4B1B68FA689A4202D2094AFB68C4
:1014E000136000BF2037BD4680BD00BF0001002053
:1014F000B4000020B80000202400002004010020D7
:10150000E80000201C01002080B58EB000AF78609C
:101510000023FB627B68002B22D00823DB437A6820
:101520009A421BD808227B6813447B607B6803F0D7
:101530000703002B14D07B6803F00703C3F10803F3
:10154000BB62BB6ADB437A689A4204D87A68BB6A9A
:1015500013447B6004E000237B6001E000237B6098
:10156000FFF7F0FB774B1B68002B01D100F06CF903
:101570007B68002BC0F2CE807B68002B00F0CA8015
:10158000714B1B687A689A4200F2C4806F4B3B63D0
:101590006E4B1B687B637B6B6D4A934205D37B6B01
:1015A0006C4A934201D8012300E00023002B27D18D
:1015B0004FF0500383F31188BFF36F8FBFF34F8F4A
:1015C0003B6200BFFEE77B6B3B637B6B1B687B630F
:1015D0007B6B5F4A934205D37B6B5E4A934201D893
:1015E000012300E00023002B0AD14FF0500383F3C6
:1015F0001188BFF36F8FBFF34F8FFB6100BFFEE712
:101600007B6B5B687A689A4203D97B6B1B68002B03
:10161000D9D14C4B1B687A6B9A427BD03B6B1B68D1
:1016200008221344FB62FB6A494A934205D3FB6AD2
:10163000484A934201D8012300E00023002B0AD13D
:101640004FF0500383F31188BFF36F8FBFF34F8FB9
:10165000BB6100BFFEE77B6B1A683B6B1A607B6B5C
:101660005B687A689A420AD94FF0500383F3118875
:10167000BFF36F8FBFF34F8F7B6100BFFEE77B6BC4
:101680005A687B68D21A08235B009A4223D97A6B86
:101690007B6813447B627B6A03F00703002B0AD04C
:1016A0004FF0500383F31188BFF36F8FBFF34F8F59
:1016B0003B6100BFFEE77B6B5A687B68D21A7B6A8E
:1016C0005A607B6B7A685A603B6B1A687B6A1A6057
:1016D0003B6B7A6A1A601C4B1A687B6B5B68D31A87
:1016E000194A1360184B1A681B4B1B689A4203D2A5
:1016F000154B1B68184A13607B6B5B6843F0004214
:101700007B6B5A607B6B00221A60144B1B680133A1
:10171000124A1360FFF724FBFB6A03F00703002B58
:101720000AD04FF0500383F31188BFF36F8FBFF3DC
:101730004F8FFB6000BFFEE7FB6A18463837BD4697
:1017400080BD00BF300D0020340D0020280D00208A
:1017500028010020270D0020380D00203C0D00201E
:1017600080B588B000AF78607B68FB617B68002B38
:101770005DD008235B42FA691344FB61FB69BB61DE
:10178000BB692D4A934205D3BB692C4A934201D8C9
:10179000012300E00023002B0AD14FF0500383F314
:1017A0001188BFF36F8FBFF34F8F7B6100BFFEE7E0
:1017B000BB695B68002B0ADB4FF0500383F3118891
:1017C000BFF36F8FBFF34F8F3B6100BFFEE7BB6975
:1017D0001B68002B0AD04FF0500383F31188BFF32E
:1017E0006F8FBFF34F8FFB6000BFFEE7BB695B6885
:1017F000002B1CDABB691B68002B18D1BB695B6826
:1018000023F00042BB695A60FFF79CFABB695A6833
:101810000B4B1B6813440A4A1360B86900F06EF85A
:10182000084B1B680133074A1360FFF799FA00BFA2
:101830002037BD4680BD00BF28010020270D0020B5
:10184000340D0020400D002080B485B000AF4FF46F
:101850004063BB60244BFB60FB6803F00703002B75
:101860000CD0FB680733FB60FB6823F00703FB60C9
:10187000BA68FB68D31A1C4A1344BB60FB681B4A56
:1018800013601A4B00225A60FA68BB6813447B60ED
:1018900008227B689B1A7B607B6823F007037B60D0
:1018A0007B68134A1360124B1B6800225A60104B6E
:1018B0001B6800221A60FB683B603B687A68D21A9A
:1018C0003B685A600A4B1A683B681A603B685B6861
:1018D000084A13603B685B68074A136000BF14370F
:1018E000BD4680BC704700BF28010020280D0020A5
:1018F000300D0020380D0020340D002080B487B05A
:1019000000AF7860354B7B6102E07B691B687B61CF
:101910007B691B687A689A42F7D87B692F4A9342A1
:1019200017D07B692E4A934205D37B692D4A934297
:1019300001D8012300E00023002B0AD14FF050030F
:1019400083F31188BFF36F8FBFF34F8FFB6000BF2E
:10195000FEE77B693B617B695B683A6913447A689F
:101960009A4208D17B695A687B685B681A447B6934
:101970005A607B697B607B683B617B685B683A6926
:101980001A447B691B689A4218D17B691A68164B06
:101990001B689A420DD07B685A687B691B685B683C
:1019A0001A447B685A607B691B681A687B681A60F6
:1019B00008E00D4B1A687B681A6003E07B691A68BF
:1019C0007B681A607A697B689A4202D07B697A6880
:1019D0001A6000BF1C37BD4680BC7047280D002030
:1019E00028010020270D0020300D002080B485B094
:1019F00000AFF860B9607A60FB68043BFB60FB688D
:101A00004FF080721A60FB68043BFB60BB6823F0F8
:101A10000102FB681A60FB68043BFB60084AFB6834
:101A20001A60FB68143BFB607A68FB681A60FB680D
:101A3000203BFB60FB6818461437BD4680BC7047EE
:101A4000451A000880B485B000AF00237B60124BBC
:101A50001B68B3F1FF3F0AD04FF0500383F31188A6
:101A6000BFF36F8FBFF34F8FFB6000BFFEE74FF0F8
:101A7000500383F31188BFF36F8FBFF34F8FBB60A9
:101A800000BF00BF7B68002BFCD000BF00BF143735
:101A9000BD4680BC704700BF04000020000000006D
:101AA000074B19680868B0E8F00F80F30988BFF3A6
:101AB0006F8F4FF0000080F311884EF00D0E7047CD
:101AC0002400002000BF00BF06480068006880F3C3
:101AD000088862B661B6BFF34F8FBFF36F8F00DF28
:101AE00000BF000008ED00E000BF00BF80B58AB075
:101AF00000AF524B1B687B627B6A2C331B68504AD9
:101B000093420AD04FF0500383F31188BFF36F8FD5
:101B1000BFF34F8FFB6100BFFEE77B6A38331B6862
:101B2000484A93420AD04FF0500383F31188BFF321
:101B30006F8FBFF34F8FBB6100BFFEE70023BB6019
:101B4000414B3B623B6A1B78DBB2FB733B6AFF2273
:101B50001A703B6A1B78DBB2FB71FB79DBB203F0D6
:101B60005003DAB2394B1A70384B1B78002B0AD16C
:101B70004FF0500383F31188BFF36F8FBFF34F8F84
:101B80007B6100BFFEE7FB79DBB2DB4303F0500370
:101B9000002B12D04FF0500383F31188BFF36F8FE7
:101BA000BFF34F8F3B6100BFFEE7BB680133BB60F3
:101BB000FB79DBB25B00DBB2FB71FB79DBB203F0DC
:101BC0008003802BF1D0BB68082B03D1204B00226F
:101BD0001A6004E0BB68C3F107031D4A13601C4B85
:101BE0001B681B021A4A1360194B1B6803F4E0635D
:101BF000174A1360FB7BDAB23B6A1A70154B1B68FD
:101C0000144A43F47F031360124B1B68114A43F0DC
:101C10007F431360104B00221A6000F0BFF80F4B97
:101C200000221A60FFF750FFFFF7BAFAFFF70AFF2A
:101C3000002318462837BD4680BD00BF08ED00E0F0
:101C4000A11A0008111D000800E400E0440D002066
:101C5000480D002020ED00E01CED00E00400002015
:101C600080B483B000AF4FF0500383F31188BFF30B
:101C70006F8FBFF34F8F7B6000BF0F4B1B6801332B
:101C80000D4A13600C4B1B68012B0FD10B4B1B68CB
:101C9000DBB2002B0AD04FF0500383F31188BFF35F
:101CA0006F8FBFF34F8F3B6000BFFEE700BF0C3765
:101CB000BD4680BC704700BF0400002004ED00E07A
:101CC00080B483B000AF114B1B68002B0AD14FF0DA
:101CD000500383F31188BFF36F8FBFF34F8F7B6087
:101CE00000BFFEE7094B1B68013B084A1360074B26
:101CF0001B68002B05D100233B603B6883F31188F0
:101D000000BF00BF0C37BD4680BC704704000020F8
:101D1000EFF30980BFF36F8F0D4B1A6820E9F00FC6
:101D200010602DE908404FF0500080F31188FFF754
:101D300037FA4FF0000080F31188BDE808401968B9
:101D40000868B0E8F00F80F30988BFF36F8F704721
:101D50002400002000BF00BF80B582B000AF4FF06C
:101D6000500383F31188BFF36F8FBFF34F8F7B60F6
:101D700000BFFFF7FDF80346002B03D0064B4FF0E2
:101D800080521A6000233B603B6883F3118800BFD8
:101D900000BF0837BD4680BD04ED00E080B400AF51
:101DA000074B00221A60074B00221A60064B074AB5
:101DB0001A60034B07221A6000BFBD4680BC704703
:101DC00010E000E018E000E014E000E03F1901003E
:101DD00080B483B000AF78607B6803F108027B6851
:101DE0005A607B684FF0FF329A607B6803F108020B
:101DF0007B68DA607B6803F108027B681A617B68A4
:101E000000221A6000BF0C37BD4680BC704780B40A
:101E100083B000AF78607B6800221A6100BF0C3786
:101E2000BD4680BC704780B485B000AF7860396033
:101E30003B681B68BB60BB68B3F1FF3F03D17B68A5
:101E40001B69FB600CE07B680833FB6002E0FB6809
:101E50005B68FB60FB685B681B68BA689A42F6D2F5
:101E6000FB685A683B685A603B685B683A689A60EE
:101E70003B68FA689A60FB683A685A603B687A681F
:101E80001A617B681B685A1C7B681A6000BF143794
:101E9000BD4680BC704780B485B000AF78607B6879
:101EA0001B69FB607B685B687A6892689A607B68F4
:101EB0009B687A6852685A60FB685B687A689A42E5
:101EC00003D17B689A68FB685A607B6800221A61BC
:101ED000FB681B685A1EFB681A60FB681B68184683
:101EE0001437BD4680BC7047F8B500BFF8BC08BCCD
:101EF0009E467047F8B500BFF8BC08BC9E467047C8
:101F00006C65645F636F6E74726F6C6C65720000F9
:101F1000646973706C61795F636F6E74726F6C6CFF
:101F20006572000049444C450000000004000000B8
:041F3000790100082B
:041F3400510100084F
:081F38000024F400AAAAAAAAE1
:04000005080008796E
:00000001FF
